:100000000C948B000C94AA000C94AA000C94AA00E7
:100010000C94AA000C94AA000C94AA000C94AA00B8
:100020000C94AA000C94AA000C94AA000C94AA00A8
:100030000C94AA000C9417010C94AA000C94AA002A
:100040000C94AA000C94AA000C94AA000C94AA0088
:100050000C94AA000C94AA000C94AA000C94AA0078
:100060000C94AA000C94AA000C94AA000C94AA0068
:100070000C94AA000C94AA000C94AA000C94AA0058
:100080000C94AA000C94AA000C94AA003C026E02E4
:100090006E026E026E026E026E026E026E026E02E0
:1000A0006E026E026E026E026E026E026E026E02D0
:1000B0006E026E026E026E026E026E026E026E02C0
:1000C0006E026E026E026E026E026E026E026E02B0
:1000D0006E026B026E026E026E026E026E026E02A3
:1000E00066026E026E026E026E026E0269023F02CC
:1000F0004202450248024B024E025102540257028C
:100100006E026E026E026E026E026E026E025A0283
:100110005D026002630211241FBECFEFD0E4DEBF98
:10012000CDBF11E0A0E0B1E0ECE3F5E000E00BBFF3
:1001300002C007900D92A231B107D9F711E0A2E1F8
:10014000B1E001C01D92A731B107E1F70E942A0278
:100150000C949C020C940000CF93C82F8A3019F4A1
:100160008DE00E94AC009091C00095FFFCCFC09341
:10017000C60080E090E0CF910895442349F021E04B
:1001800030E002C0220F331F6A95E2F7822B0895F8
:1001900021E030E002C0220F331F6A95E2F720957C
:1001A0008223089521E030E002C0220F331F6A95B8
:1001B000E2F78223089560930E0170930F018093FC
:1001C00010019093110160931201709313018093B9
:1001D00014019093150108958BE0809381008DE7C1
:1001E00090E0909389008093880082E080936F0074
:1001F000109285001092840080910E0190910F0161
:10020000A0911001B09111018093120190931301FC
:10021000A0931401B09315018FB780688FBF089524
:1002200010928100089581E08093160108951F9235
:100230000F920FB60F9211240BB60F922F933F938C
:100240004F935F936F937F938F939F93AF93BF93DE
:10025000EF93FF938091120190911301A0911401EB
:10026000B09115010197A109B109809312019093F2
:100270001301A0931401B0931501892B8A2B8B2BAA
:1002800091F40E94130180910E0190910F01A091B1
:100290001001B09111018093120190931301A0936A
:1002A0001401B0931501FF91EF91BF91AF919F9110
:1002B0008F917F916F915F914F913F912F910F900F
:1002C0000BBE0F900FBE0F901F9018950F931F93AA
:1002D000CF93DF93B62FA72FF82FE92F022F132FDD
:1002E000D42FC52F04C0062F172FD82FC92F6B2F3F
:1002F0007A2F8F2F9E2F202F312F4D2F5C2F0E9472
:100300007102B02FA12FFD2FEC2F61157105810512
:10031000910549F7602F712F8D2F9C2FDF91CF9181
:100320001F910F9108958FEE88B9000086B160E0AB
:100330000E94D200882309F46DC086B161E00E945A
:10034000D200882309F468C086B162E00E94D2001E
:10035000882309F463C086B163E00E94D200882339
:1003600009F45EC08FED88B9000086B160E00E949C
:10037000D200882309F456C086B161E00E94D20001
:10038000882309F451C086B162E00E94D20088231C
:1003900009F44CC086B163E00E94D200882309F4BE
:1003A00047C08FEB88B9000086B160E00E94D200A0
:1003B000882309F43FC086B161E00E94D2008823FF
:1003C000D9F186B162E00E94D2008823B9F186B1EA
:1003D00063E00E94D200882399F18FE788B900007A
:1003E00086B160E00E94D200882361F186B161E0AD
:1003F0000E94D200882341F186B162E00E94D200BF
:10040000882321F186B163E00E94D200811120C0CF
:1004100084E4089581E3089584E3089587E30895CB
:100420008AE2089582E3089585E3089588E30895B4
:1004300080E3089583E3089586E3089589E30895AA
:1004400083E2089581E4089582E4089583E40895A1
:1004500080E008958FEF84B980EF87B915B88FE0F9
:1004600088B90E94930190E085349105B8F5FC01AC
:10047000EA5BFF4F0C9493028FE185B9F2CF81E0E4
:1004800085B9EFCF82E085B9ECCF83E085B9E9CFBC
:1004900084E085B9E6CF85E085B9E3CF86E085B90C
:1004A000E0CF87E085B9DDCF88E085B9DACF89E094
:1004B00085B9D7CF8AE085B9D4CF8BE085B9D1CFC4
:1004C0008CE085B9CECF8DE085B9CBCF8EE085B9F4
:1004D000C8CF15B8C6CF8FE085B9C3CF8BE185B93A
:1004E000C0CFA1E21A2EAA1BBB1BFD010DC0AA1F83
:1004F000BB1FEE1FFF1FA217B307E407F50720F08D
:10050000A21BB30BE40BF50B661F771F881F991F07
:100510001A9469F760957095809590959B01AC0150
:10052000BD01CF010895EE0FFF1F0024001C0BBE7C
:0C0530000790F691E02D0994F894FFCF9D
:10053C000000000200000000AC0000000000010000
:02054C000000AD
:00000001FF
